:100000000C9434000C9451000C9451000C94510049
:100010000C9451000C9451000C9451000C9451001C
:100020000C9451000C9451000C9451000C9451000C
:100030000C9451000C9451000C9451000C945100FC
:100040000C9451000C9451000C9451000C945100EC
:100050000C9451000C9451000C9451000C945100DC
:100060000C9451000C94510011241FBECFEFD8E026
:10007000DEBFCDBF13E0A0E0B1E0EAEDF1E102C0E8
:1000800005900D92A234B107D9F723E0A2E4B3E0C2
:1000900001C01D92A834B207E1F70E9456000C94EB
:1000A000EB080C9400000E94D8020895CF93DF93D0
:1000B000CDB7DEB729970FB6F894DEBF0FBECDBF20
:1000C0008AE089831A828B8384E08C831E821D825E
:1000D000FE01379683E0DF011D928A95E9F70E94C1
:1000E00053008EE00E946F040E943303249A269AE4
:1000F000529A2E982C985A9803E010E082E191E0F1
:100100000E945F04BFEFE3EDF0E3B150E040F04048
:10011000E1F700C000000E9447048FE02D9AAFE88D
:10012000B1E01197F1F700C000008150B9F789EBF9
:100130002D98EFE8F1E03197F1F700C00000815011
:10014000B9F78FE02B9AAFE8B1E01197F1F700C053
:1001500000008150B9F789EB2B98EFE8F1E0319777
:10016000F1F700C000008150B9F70150110909F002
:10017000C5CF8AE291E00E9480056E01F5E0CF0EC6
:10018000D11C10E160C00E943F03B82E8AE290E0CB
:100190000E947905D7018D917D01B81201C00F5FD2
:1001A000EC14FD0481F7043011F58EE991E09F9382
:1001B0008F930E94630580EB91E00E945F04BFEF84
:1001C000E7EAF1E6B150E040F040E1F700C000009E
:1001D0002C9A87EC91E09F938F930E9463050F9078
:1001E0000F900F900F9082E010E093E040C083EDFD
:1001F00091E00E94800513B92FEF89E698E1215024
:1002000080409040E1F700C0000013B9AFEFB9E6BD
:10021000E8E1A150B040E040E1F700C0000013B9B0
:10022000FFEF29E688E1F15020408040E1F700C06F
:10023000000013B99FEFA9E6B8E19150A040B0408B
:10024000E1F700C00000FE0131967F0100E09BCF86
:10025000AFE9BFE01197F1F700C000001F5F3499CC
:10026000F7CF01C0892F349BFDCF823019F4349928
:10027000EFCFF9CF0E944704812F90E00E94330511
:1002800014E60E942E051150E1F762E370E00E942F
:10029000BA04F82E4AE0BE016B5F7F4F90E00E94E7
:1002A0003E058FE092E00E945F04CE0105960E9419
:1002B0005F048EE192E00E945F0433243394412C6A
:1002C000EE24E39404ED12E0712C0F2EF3E05F2E88
:1002D000F02D0F2EF7EEAF2EF2E0BF2EF02D0F2EE9
:1002E000F3E1CF2EF3E0DF2EF02D6894662461F861
:1002F000349997C08EE292E00E94800589E992E0ED
:100300000E9480050E943F03813071F120F082300D
:1003100009F449C078C01F92EF921F930F930E9477
:1003200063050F900F900F900F908AE02B9AEFE8E3
:10033000F1E03197F1F700C000008150B9F78EEB82
:100340002B98AFE8B1E01197F1F700C000008150A1
:10035000B9F7BFEFE3EDF0E3B150E040F040E1F773
:1003600000C00000372C5DC01F926F921F930F9347
:100370000E9463050F900F900F900F908FE02B9AC3
:10038000AFE8B1E01197F1F700C000008150B9F774
:1003900089EB2B98EFE8F1E03197F1F700C000000E
:1003A0008150B9F73EC01F925F921F930F930E9436
:1003B0006305BF92AF920E9463050E941E03F82E50
:1003C000882E912C1F928F93DF92CF920E9463050B
:1003D0000E9447044AE0BE016B5F7F4FC4010E9448
:1003E0003E058FE092E00E945F04CE0105960E94D8
:1003F0005F048EE192E00E945F040FB6F894DEBFC6
:100400000FBECDBF0EC087E193E00E9480059FEF35
:10041000A3EDB0E39150A040B040E1F700C0000070
:1004200069CFE1E3EF1508F451C01F99B7C01D99DA
:1004300036C02E9AF3944AE0BE016B5F7F4F8F2D3A
:1004400090E00E943E050E9447048FE092E00E94E7
:100450005F04CE0105960E945F048EE192E00E9447
:100460005F048AE02D9AAFE8B1E01197F1F700C080
:1004700000008150B9F78EEB2D98EFE8F1E031974D
:10048000F1F700C000008150B9F72E98FFEF23ED7F
:1004900080E3F15020408040E1F700C000001F9B46
:1004A0001EC08FE02D9AAFE8B1E01197F1F700C0C0
:1004B00000008150B9F789EB2D98EFE8F1E0319712
:1004C000F1F700C000008150B9F709C0411007C022
:1004D0000E94470480E393E00E945F044E2CFF20BB
:1004E00009F406CF4B993DC01B993BC05A9AFA9428
:1004F0004AE0BE016B5F7F4F8F2D90E00E943E056A
:100500000E9447048AE02B9AAFE8B1E01197F1F717
:1005100000C000008150B9F78EEB2B98EFE8F1E0B6
:100520003197F1F700C000008150B9F78FE092E0F9
:100530000E945F04CE0105960E945F048EE192E066
:100540000E945F04FFEF23ED80E3F15020408040E4
:10055000E1F700C000005A984B9909C03E2C472C87
:10056000C7CE4B9BC5CE91E03912C2CE01C0472CFD
:100570008FE02B9AAFE8B1E01197F1F700C00000CF
:100580008150B9F789EB2B98EFE8F1E03197F1F75B
:1005900000C000008150B9F73E2CAACE1F9981CF30
:1005A0009ECF50985898519A59980E9405030895E3
:1005B0008FEE8093640084B114B885B19FEF95B934
:1005C00087B1807887B988B18F6788B98AB11AB83E
:1005D0008BB19BB940E060E881E690E00E94F502B3
:1005E00013BE15BE0E94D10208952FB7F894FC01E6
:1005F000608340832FBF0895E0ECF0E08081882382
:10060000ECF78091C60090E00895E4E6F0E0808188
:100610008D7F80831092C50087E68093C40010927E
:10062000C00088E98093C100E2E4F3E084E091E057
:10063000938382839183808380E00895E0ECF0E0EF
:1006400080818823ECF78091C6000895E0ECF0E00B
:10065000908195FFFDCF8093C60008950E942603E8
:1006600080E090E008958FE087B920982098289A3C
:1006700021982198299A229822982A9A0895CF920F
:10068000DF92EF92FF920F931F93CF93DF9300D0EF
:1006900000D0CDB7DEB78EEF89838DEF8A838BEFE5
:1006A0008B8387EF8C8380E073E060E056E049E065
:1006B00004E011E0B7E0AAE00F2EF5E0DF2EF02D08
:1006C0006894EE24E1F86894FF24F3F80F2EFBE021
:1006D000CF2EF02D21E001C02F5F9FEF920FE1E0C0
:1006E000F0E0EC0FFD1FE90FF11D308138B9EFE9A3
:1006F000FFE03197F1F700C0000018991DC091305C
:1007000041F028F0923039F0933039F007C0862F4D
:1007100005C0872F03C0852F01C0842FFFEF39EF5D
:10072000E0E0F1503040E040E1F700C000001899EF
:1007300003C0189BFECF5BC019991DC0913041F0DA
:1007400028F0923039F0933039F007C0812F05C07E
:10075000802F03C08B2F01C08A2FFFEF39EFE0E01D
:10076000F1503040E040E1F700C00000199903C0AB
:10077000199BFECF3CC01A991AC0913031F040F15C
:10078000923041F19330B9F002C08D2D24C0FFEFBB
:1007900039EF90E0F15030409040E1F700C00000A8
:1007A0001A9905C001C08BE01A9BFECF20C02430EF
:1007B00008F492CF8FCFEFEFF9EF20E0E150F04057
:1007C0002040E1F700C000001A9BEDCF8C2D82CFB6
:1007D0008E2D01C08F2D3FEF99EFE0E0315090401A
:1007E000E040E1F700C000001A9976CFDDCF0F900E
:1007F0000F900F900F90DF91CF911F910F91FF906D
:10080000EF90DF90CF900895459A85E08A95F1F7B3
:10081000000045980895CF93C82F662311F0469A9B
:1008200001C04698549A559A569A579A5F985E987E
:100830005D985C98CC230CF45F9AC6FD5E9AC5FD6A
:100840005D9AC4FD5C9A0E9404045F985E985D986E
:100850005C98C3FD5F9AC2FD5E9AC1FD5D9AC0FDC2
:100860005C9A0E9404045C9A5D9A5E9A5F9ACF91AA
:100870000895EFE1FEE43197F1F700C00000F5E1E3
:10088000FA95F1F7000060E00E940B04089581E002
:100890000E9439040895EFE1FEE43197F1F700C0BA
:1008A0000000F5E1FA95F1F700008A3021F480ECC0
:1008B0000E943904089561E00E940B040895CF93CB
:1008C000DF93EC012196FC018081882329F00E94AE
:1008D0004B0489918111FBCFDF91CF910895CF9384
:1008E000C82F3E9A3C9A3D9A549A559A569A579ACE
:1008F0002FEF80E792E0215080409040E1F700C068
:1009000000005C985D985E985F98469845985D9A5F
:100910005C9A0E9404048FE19EE40197F1F700C005
:1009200000000E9404048FE891E00197F1F700C0F5
:1009300000000E9404048FE891E00197F1F700C0E5
:1009400000005C980E9404048FEF90E00197F1F79B
:1009500000C0000088E20E94390488E00E94390447
:100960000E94470486E00E9439048C2F0E943904BB
:10097000CF91089597FB072E16F4009407D077FDCA
:1009800009D00E94CE0407FC05D03EF490958195D5
:100990009F4F0895709561957F4F0895AA1BBB1BCB
:1009A00051E107C0AA1FBB1FA617B70710F0A61B6F
:1009B000B70B881F991F5A95A9F780959095BC0190
:1009C000CD0108958F929F92AF92BF92CF92DF9206
:1009D000EF92FF92CF93DF93EC01688179818A8156
:1009E0009B81611571058105910521F464E279ED22
:1009F0008BE597E02DE133EF41E050E00E94510894
:100A000049015A019B01AC01A7EAB1E40E947008B8
:100A10006B017C01ACEEB4EFA50194010E947E084D
:100A2000DC01CB018C0D9D1DAE1DBF1DB7FF03C0AA
:100A30000197A109B04888839983AA83BB839F77D4
:100A4000DF91CF91FF90EF90DF90CF90BF90AF906C
:100A50009F908F9008950E94E204089580E091E0B5
:100A60000E94E2040895A0E0B0E08093000190931A
:100A70000101A0930201B09303010895BB274A30FE
:100A800031F4992322F4BDE2909581959F4F0C9407
:100A90004A05BB27FB015527AA27880F991FAA1FC4
:100AA000A41710F0A41B83955051B9F7A05DAA3389
:100AB00008F0A95DA193009779F7B111B193119254
:100AC000CB010C94A707A0E0B0E0E9E6F5E00C94B8
:100AD0009308AE014B5F5F4FFA0161917191AF01D5
:100AE00080914403909145030E94B005E2E00C948C
:100AF000AF0860914403709145030E94B7070895C1
:100B00000F931F93CF93DF93E0914403F09145033C
:100B1000238121FF1BC08C01D0E0C0E0F80181914E
:100B20008F016091440370914503DB011896ED91AC
:100B3000FC911997882331F00995892B79F3DFEF20
:100B4000CFEFECCF8AE00995892B19F08FEF9FEF5B
:100B500002C08D2F9C2FDF91CF911F910F9108958F
:100B6000ABE0B0E0E6EBF5E00C9483086C017B01B0
:100B70008A01FC0117821682838181FFCCC1CE01DC
:100B800001963C01F6019381F70193FD859193FF56
:100B900081917F01882309F4BAC1853239F493FD2C
:100BA000859193FF81917F01853229F4B60190E010
:100BB0000E94B707E7CF912C212C312CFFE1F315D0
:100BC000D8F08B3279F038F4803279F08332A1F4A6
:100BD000232D20611DC08D3261F0803369F4232DF7
:100BE000216016C0832D8260382EE32DE4603E2EF6
:100BF0002AC0F32DF8601DC037FC2DC020ED280F52
:100C00002A3040F08E32B9F436FC81C1232D2064A5
:100C1000322E19C036FE06C08AE0989E200D11249F
:100C2000922E11C0EAE02E9E200D1124222EF32DCB
:100C3000F0623F2E08C08C3621F4832D8068382E58
:100C400002C0883641F4F70193FD859193FF8191AD
:100C50007F018111B3CF982F9F7D9554933028F455
:100C60000C5F1F4F9FE399830DC0833631F08337AC
:100C700071F0833509F059C021C0F8018081898362
:100C80000E5F1F4F88248394912C530113C02801B9
:100C9000F2E04F0E511CF801A080B18036FE03C077
:100CA000692D70E002C06FEF7FEFC5010E949C07C5
:100CB0004C018201F32DFF773F2E16C0280122E060
:100CC000420E511CF801A080B18036FE03C0692D90
:100CD00070E002C06FEF7FEFC5010E9491074C01E9
:100CE000F32DF0683F2E820133FC1BC0822D90E073
:100CF00088169906B0F4B60180E290E00E94B7072A
:100D00002A94F4CFF50137FC859137FE81915F017C
:100D1000B60190E00E94B70721102A9421E0821AC0
:100D200091088114910471F7E8C0843611F0893676
:100D300041F5F80137FE07C060817181828193819E
:100D40000C5F1F4F08C060817181072E000C880B5B
:100D5000990B0E5F1F4FF32DFF763F2E97FF09C0B3
:100D600090958095709561957F4F8F4F9F4FF0685C
:100D70003F2E2AE030E0A3010E94F307882E861858
:100D800045C0853731F4232D2F7EB22E2AE030E086
:100D900025C0932D997FB92E8F36C1F018F4883570
:100DA00079F0B5C0803719F0883721F0B0C0E92F4D
:100DB000E061BE2EB4FE0DC0FB2DF460BF2E09C055
:100DC00034FE0AC0292F2660B22E06C028E030E08B
:100DD00005C020E130E002C020E132E0F801B7FEBA
:100DE00007C060817181828193810C5F1F4F06C0B3
:100DF0006081718180E090E00E5F1F4FA3010E942F
:100E0000F307882E8618FB2DFF773F2E36FE0DC088
:100E1000232D2E7FA22E891458F434FE0BC032FCF1
:100E200009C0832D8E7EA82E05C0B82CA32C03C02C
:100E3000B82C01C0B92CA4FE0FC0FE01E80DF11DB5
:100E40008081803321F49A2D997EA92E09C0A2FEBB
:100E500006C0B394B39404C08A2D867809F0B39485
:100E6000A3FC11C0A0FE06C0B21488F4280C922C7A
:100E70009B180EC0B21460F4B60180E290E00E94AC
:100E8000B707B394F7CFB21418F42B1802C0982CFC
:100E9000212CA4FE10C0B60180E390E00E94B707A9
:100EA000A2FE17C0A1FC03C088E790E002C088E55D
:100EB00090E0B6010CC08A2D867859F0A1FE02C0E0
:100EC0008BE201C080E2A7FC8DE2B60190E00E94B7
:100ED000B707891438F4B60180E390E00E94B707A1
:100EE0009A94F7CF8A94F301E80DF11D8081B60141
:100EF00090E00E94B7078110F5CF222009F442CE7E
:100F0000B60180E290E00E94B7072A94F6CFF6017E
:100F10008681978102C08FEF9FEF2B96E2E10C94C0
:100F20009F08FC010590615070400110D8F7809532
:100F300090958E0F9F1F0895FC01615070400190A5
:100F40000110D8F7809590958E0F9F1F0895DC01B2
:100F5000FC01672F71917723E1F7329704C07C91F0
:100F60006D9370836291AE17BF07C8F308950F9316
:100F70001F93CF93DF93FB01238121FD03C08FEFEC
:100F80009FEF2CC022FF16C04681578124813581F6
:100F90004217530744F4A081B1819D012F5F3F4F59
:100FA000318320838C93268137812F5F3F4F378396
:100FB000268314C08B01EC01FB010084F185E02D38
:100FC0000995892BE1F6D80116968D919C9117977A
:100FD000019617969C938E931697CE01DF91CF9131
:100FE0001F910F910895FA01AA27283051F120315D
:100FF00081F1E8946F936E7F6E5F7F4F8F4F9F4FAD
:10100000AF4FB1E03ED0B4E03CD0670F781F891FEE
:101010009A1FA11D680F791F8A1F911DA11D6A0FBC
:10102000711D811D911DA11D20D009F468943F916F
:101030002AE0269F11243019305D3193DEF6CF016E
:101040000895462F4770405D4193B3E00FD0C9F734
:10105000F6CF462F4F70405D4A3318F0495D31FDA1
:101060004052419302D0A9F7EACFB4E0A6959795F4
:10107000879577956795BA95C9F7009761057105CA
:1010800008959B01AC010A2E069457954795379514
:101090002795BA95C9F7620F731F841F951FA01D6E
:1010A0000895052E97FB1EF400940E94680857FDD2
:1010B00007D00E94BA0807FC03D04EF40C946808CD
:1010C00050954095309521953F4F4F4F5F4F089574
:1010D00090958095709561957F4F8F4F9F4F0895A4
:1010E0000E94DC08A59F900DB49F900DA49F800DD9
:1010F000911D11240895B7FF0C9470080E94700888
:10110000821B930B08952F923F924F925F926F92A2
:101110007F928F929F92AF92BF92CF92DF92EF9287
:10112000FF920F931F93CF93DF93CDB7DEB7CA1B08
:10113000DB0B0FB6F894DEBF0FBECDBF09942A8833
:10114000398848885F846E847D848C849B84AA84DB
:10115000B984C884DF80EE80FD800C811B81AA8168
:10116000B981CE0FD11D0FB6F894DEBF0FBECDBF33
:10117000ED010895A1E21A2EAA1BBB1BFD010DC0B3
:10118000AA1FBB1FEE1FFF1FA217B307E407F50737
:1011900020F0A21BB30BE40BF50B661F771F881F13
:1011A000991F1A9469F760957095809590959B01A9
:1011B000AC01BD01CF010895A29FB001B39FC00152
:1011C000A39F700D811D1124911DB29F700D811D73
:0A11D0001124911D0895F894FFCF3B
:1011DA000100000000000003000000002E03FC02D2
:1011EA000000436172207061726B0A5379737465EF
:1011FA006D20626F6F74696E6700456E7465722048
:10120A00342D64696769742050494E20746F2073C5
:10121A007461727420616E64207468656E207072E5
:10122A006573732074686520636F6E74726F6C20C7
:10123A00627574746F6E207768656E206D656E7561
:10124A0020686173206C6F6164656420746F20622A
:10125A006567696E206F7065726174696E67204395
:10126A006172205061726B206761746573000A0AAB
:10127A004D656E75206C6F6164696E672E2E2E0047
:10128A00436172207061726B0A53797374656D20C1
:10129A00626F6F746564004D656E75206C6F616472
:1012AA006564000A0A496E636F72726563742C2062
:1012BA0074727920616761696E2061667465722053
:1012CA0073797374656D206C6967687420686173DB
:1012DA0020666C617368656420677265656E005389
:1012EA0070616365732074616B656E3A20000A4D04
:1012FA006178205370616365733A203530000A0AB9
:10130A0050726573732031206F6E20746865206B8C
:10131A00657970616420746F206F70656E206578DE
:10132A00697420676174652066726F6D206F6666E6
:10133A006963650A50726573732032206F6E207478
:10134A006865206B657970616420746F20636C6FC7
:10135A007365206578697420676174652066726FA9
:10136A006D206F666669636500507265737320331A
:10137A00206F6E20746865206B65797061642074D3
:10138A006F20456E746572205370616365207461C5
:10139A006B656E206F6E20746865206B6579626F6D
:1013AA00617264000A4E756D62657220656E7465BD
:1013BA00726564202564000A456E74657220566160
:1013CA006C756528696E2053656E642056616C756C
:1013DA0065296F662073706163652074616B656E41
:1013EA003A200025640A000A4572726F722C506C0A
:1013FA00656173652074727920616761696E0A009C
:10140A00436172207061726B2069732066756C6C1F
:02141A000000D0
:00000001FF
